{
  "_format": "hh-sol-artifact-1",
  "contractName": "ProductPlatform",
  "sourceName": "contracts/ProductPlatform.sol",
  "abi": [
    {
      "inputs": [
        {
          "internalType": "address",
          "name": "userSystemAddress",
          "type": "address"
        },
        {
          "internalType": "address",
          "name": "reputationSystemAddress",
          "type": "address"
        },
        {
          "internalType": "address",
          "name": "productSystemAddress",
          "type": "address"
        }
      ],
      "stateMutability": "nonpayable",
      "type": "constructor"
    },
    {
      "anonymous": false,
      "inputs": [
        {
          "indexed": false,
          "internalType": "uint256",
          "name": "productId",
          "type": "uint256"
        },
        {
          "indexed": false,
          "internalType": "uint256",
          "name": "quantity",
          "type": "uint256"
        },
        {
          "indexed": false,
          "internalType": "address",
          "name": "buyer",
          "type": "address"
        },
        {
          "indexed": false,
          "internalType": "address",
          "name": "seller",
          "type": "address"
        }
      ],
      "name": "ProductBought",
      "type": "event"
    },
    {
      "inputs": [
        {
          "internalType": "uint256",
          "name": "productId",
          "type": "uint256"
        },
        {
          "internalType": "uint256",
          "name": "quantity",
          "type": "uint256"
        },
        {
          "internalType": "bool",
          "name": "eth",
          "type": "bool"
        }
      ],
      "name": "buyProduct",
      "outputs": [],
      "stateMutability": "payable",
      "type": "function"
    },
    {
      "inputs": [],
      "name": "productSystem",
      "outputs": [
        {
          "internalType": "contract ProductSystem",
          "name": "",
          "type": "address"
        }
      ],
      "stateMutability": "view",
      "type": "function"
    },
    {
      "inputs": [],
      "name": "reputationSystem",
      "outputs": [
        {
          "internalType": "contract ReputationSystem",
          "name": "",
          "type": "address"
        }
      ],
      "stateMutability": "view",
      "type": "function"
    },
    {
      "inputs": [
        {
          "internalType": "uint256",
          "name": "productId",
          "type": "uint256"
        },
        {
          "internalType": "uint256",
          "name": "rating",
          "type": "uint256"
        },
        {
          "internalType": "string",
          "name": "comments",
          "type": "string"
        }
      ],
      "name": "submitFeedback",
      "outputs": [],
      "stateMutability": "nonpayable",
      "type": "function"
    },
    {
      "inputs": [],
      "name": "userSystem",
      "outputs": [
        {
          "internalType": "contract UserSystem",
          "name": "",
          "type": "address"
        }
      ],
      "stateMutability": "view",
      "type": "function"
    }
  ],
  "bytecode": "0x6080604052348015600f57600080fd5b50604051610e28380380610e28833981016040819052602c916088565b600080546001600160a01b039485166001600160a01b03199182161790915560018054938516938216939093179092556002805491909316911617905560c4565b80516001600160a01b0381168114608357600080fd5b919050565b600080600060608486031215609c57600080fd5b60a384606d565b925060af60208501606d565b915060bb60408501606d565b90509250925092565b610d55806100d36000396000f3fe60806040526004361061004a5760003560e01c8063177dc1101461004f5780636587eda11461008b57806371089466146100ab5780639a22cbe9146100c0578063bb8a8674146100e0575b600080fd5b34801561005b57600080fd5b5060005461006f906001600160a01b031681565b6040516001600160a01b03909116815260200160405180910390f35b34801561009757600080fd5b5060015461006f906001600160a01b031681565b6100be6100b93660046109ed565b610100565b005b3480156100cc57600080fd5b5060025461006f906001600160a01b031681565b3480156100ec57600080fd5b506100be6100fb366004610a72565b610798565b60025460405163db34d12360e01b8152600481018590526000916001600160a01b03169063db34d12390602401602060405180830381865afa15801561014a573d6000803e3d6000fd5b505050506040513d601f19601f8201168201806040525081019061016e9190610b1f565b6002546040516388c8b59160e01b8152600481018790529192506000916001600160a01b03909116906388c8b59190602401602060405180830381865afa1580156101bd573d6000803e3d6000fd5b505050506040513d601f19601f820116820180604052508101906101e19190610b38565b9050600084116102385760405162461bcd60e51b815260206004820152601f60248201527f5175616e74697479206d7573742062652067726561746572207468616e20300060448201526064015b60405180910390fd5b838210156102885760405162461bcd60e51b815260206004820152601c60248201527f4e6f7420656e6f756768207175616e7469747920696e2073746f636b00000000604482015260640161022f565b6002546040516339efdf7f60e21b8152600481018790526000916001600160a01b03169063e7bf7dfc90602401602060405180830381865afa1580156102d2573d6000803e3d6000fd5b505050506040513d601f19601f820116820180604052508101906102f69190610b1f565b9050600084151581036103e95760008060009054906101000a90046001600160a01b03166001600160a01b031663a607a8d96040518163ffffffff1660e01b8152600401602060405180830381865afa158015610357573d6000803e3d6000fd5b505050506040513d601f19601f8201168201806040525081019061037b9190610b1f565b90506103878184610b7e565b92506103938134610b7e565b915061039f8784610b7e565b8210156103e35760405162461bcd60e51b8152602060048201526012602482015271496e73756666696369656e742066756e647360701b604482015260640161022f565b50610437565b6103f38683610b7e565b3410156104375760405162461bcd60e51b8152602060048201526012602482015271496e73756666696369656e742066756e647360701b604482015260640161022f565b600080546001600160a01b031661044e8885610b7e565b856104598a87610b7e565b6040516001600160a01b039092166024830152604482015260640160408051601f198184030181529181526020820180516001600160e01b031663e0b1cccb60e01b179052516104a99190610bbf565b60006040518083038185875af1925050503d80600081146104e6576040519150601f19603f3d011682016040523d82523d6000602084013e6104eb565b606091505b505090508061053c5760405162461bcd60e51b815260206004820152601f60248201527f4661696c656420746f207570646174652073656c6c65722062616c616e636500604482015260640161022f565b60005460405163516f7bef60e11b8152336004820152602481018a90526001600160a01b039091169063a2def7de90604401600060405180830381600087803b15801561058857600080fd5b505af115801561059c573d6000803e3d6000fd5b50506002546001600160a01b0316915063878d96639050896105be8a89610bdb565b6040516001600160e01b031960e085901b16815260048101929092526024820152604401600060405180830381600087803b1580156105fc57600080fd5b505af1158015610610573d6000803e3d6000fd5b50505050851561066d5760006106268885610b7e565b6106309034610bdb565b9050801561066757604051339082156108fc029083906000818181858888f19350505050158015610665573d6000803e3d6000fd5b505b50610740565b60008060009054906101000a90046001600160a01b03166001600160a01b031663a607a8d96040518163ffffffff1660e01b8152600401602060405180830381865afa1580156106c1573d6000803e3d6000fd5b505050506040513d601f19601f820116820180604052508101906106e59190610b1f565b905060006106f38986610b7e565b6106fd9085610bdb565b9050801561073d57336108fc6107138484610bee565b6040518115909202916000818181858888f1935050505015801561073b573d6000803e3d6000fd5b505b50505b604080518981526020810189905233818301526001600160a01b038616606082015290517f6162bac868ea6d78ca6a04fb1757c8ac562869f60100db72a7e8c8cb92c9720d9181900360800190a15050505050505050565b6000805460405163304ddb2b60e11b815233600482015285929182916001600160a01b039091169063609bb65690602401602060405180830381865afa1580156107e6573d6000803e3d6000fd5b505050506040513d601f19601f8201168201806040525081019061080a9190610b1f565b60008054604051636372ec7b60e11b815233600482015292935090916001600160a01b039091169063c6e5d8f690602401600060405180830381865afa158015610858573d6000803e3d6000fd5b505050506040513d6000823e601f3d908101601f191682016040526108809190810190610c10565b905060005b828110156108c55760008282815181106108a1576108a1610cc1565b602002602001015190508581036108bc5760019450506108c5565b50600101610885565b508261091e5760405162461bcd60e51b815260206004820152602260248201527f5573657220686173206e6f7420707572636861736564207468652070726f647560448201526118dd60f21b606482015260840161022f565b60018610158015610930575060058611155b61097c5760405162461bcd60e51b815260206004820152601e60248201527f526174696e67206d757374206265206265747765656e203120616e6420350000604482015260640161022f565b600154604051639f039c2160e01b81526001600160a01b0390911690639f039c21906109b2908a908a9042908b90600401610cd7565b600060405180830381600087803b1580156109cc57600080fd5b505af11580156109e0573d6000803e3d6000fd5b5050505050505050505050565b600080600060608486031215610a0257600080fd5b833592506020840135915060408401358015158114610a2057600080fd5b809150509250925092565b634e487b7160e01b600052604160045260246000fd5b604051601f8201601f1916810167ffffffffffffffff81118282101715610a6a57610a6a610a2b565b604052919050565b600080600060608486031215610a8757600080fd5b8335925060208401359150604084013567ffffffffffffffff811115610aac57600080fd5b8401601f81018613610abd57600080fd5b803567ffffffffffffffff811115610ad757610ad7610a2b565b610aea601f8201601f1916602001610a41565b818152876020838501011115610aff57600080fd5b816020840160208301376000602083830101528093505050509250925092565b600060208284031215610b3157600080fd5b5051919050565b600060208284031215610b4a57600080fd5b81516001600160a01b0381168114610b6157600080fd5b9392505050565b634e487b7160e01b600052601160045260246000fd5b8082028115828204841417610b9557610b95610b68565b92915050565b60005b83811015610bb6578181015183820152602001610b9e565b50506000910152565b60008251610bd1818460208701610b9b565b9190910192915050565b81810381811115610b9557610b95610b68565b600082610c0b57634e487b7160e01b600052601260045260246000fd5b500490565b600060208284031215610c2257600080fd5b815167ffffffffffffffff811115610c3957600080fd5b8201601f81018413610c4a57600080fd5b805167ffffffffffffffff811115610c6457610c64610a2b565b8060051b610c7460208201610a41565b91825260208184018101929081019087841115610c9057600080fd5b6020850194505b83851015610cb657845180835260209586019590935090910190610c97565b979650505050505050565b634e487b7160e01b600052603260045260246000fd5b8481528360208201528260408201526080606082015260008251806080840152610d088160a0850160208701610b9b565b601f01601f19169190910160a0019594505050505056fea2646970667358221220c47ffc819716d8a66a118e1b1022f21b8699e7a70b8c48d0ac2d31be6f8d5bc864736f6c634300081b0033",
  "linkReferences": {},
  "deployedLinkReferences": {}
}