{
  "_format": "hh-sol-artifact-1",
  "contractName": "ProductPlatform",
  "sourceName": "contracts/ProductPlatform.sol",
  "abi": [
    {
      "inputs": [
        {
          "internalType": "address",
          "name": "userSystemAddress",
          "type": "address"
        },
        {
          "internalType": "address",
          "name": "reputationSystemAddress",
          "type": "address"
        },
        {
          "internalType": "address",
          "name": "productSystemAddress",
          "type": "address"
        }
      ],
      "stateMutability": "nonpayable",
      "type": "constructor"
    },
    {
      "inputs": [
        {
          "internalType": "string",
          "name": "name",
          "type": "string"
        },
        {
          "internalType": "string",
          "name": "description",
          "type": "string"
        },
        {
          "internalType": "uint256",
          "name": "price",
          "type": "uint256"
        },
        {
          "internalType": "uint256",
          "name": "quantity",
          "type": "uint256"
        }
      ],
      "name": "addProduct",
      "outputs": [],
      "stateMutability": "nonpayable",
      "type": "function"
    },
    {
      "inputs": [
        {
          "internalType": "uint256",
          "name": "productId",
          "type": "uint256"
        },
        {
          "internalType": "uint256",
          "name": "quantity",
          "type": "uint256"
        },
        {
          "internalType": "bool",
          "name": "eth",
          "type": "bool"
        }
      ],
      "name": "buyProduct",
      "outputs": [],
      "stateMutability": "payable",
      "type": "function"
    },
    {
      "inputs": [],
      "name": "productSystem",
      "outputs": [
        {
          "internalType": "contract ProductSystem",
          "name": "",
          "type": "address"
        }
      ],
      "stateMutability": "view",
      "type": "function"
    },
    {
      "inputs": [],
      "name": "reputationSystem",
      "outputs": [
        {
          "internalType": "contract ReputationSystem",
          "name": "",
          "type": "address"
        }
      ],
      "stateMutability": "view",
      "type": "function"
    },
    {
      "inputs": [
        {
          "internalType": "uint256",
          "name": "productId",
          "type": "uint256"
        },
        {
          "internalType": "uint256",
          "name": "rating",
          "type": "uint256"
        },
        {
          "internalType": "string",
          "name": "comments",
          "type": "string"
        }
      ],
      "name": "submitFeedback",
      "outputs": [],
      "stateMutability": "nonpayable",
      "type": "function"
    },
    {
      "inputs": [],
      "name": "userSystem",
      "outputs": [
        {
          "internalType": "contract UserSystem",
          "name": "",
          "type": "address"
        }
      ],
      "stateMutability": "view",
      "type": "function"
    }
  ],
  "bytecode": "0x6080604052348015600f57600080fd5b5060405161100d38038061100d833981016040819052602c916088565b600080546001600160a01b039485166001600160a01b03199182161790915560018054938516938216939093179092556002805491909316911617905560c4565b80516001600160a01b0381168114608357600080fd5b919050565b600080600060608486031215609c57600080fd5b60a384606d565b925060af60208501606d565b915060bb60408501606d565b90509250925092565b610f3a806100d36000396000f3fe6080604052600436106100555760003560e01c806301cecd141461005a578063177dc1101461007c5780636587eda1146100b857806371089466146100d85780639a22cbe9146100eb578063bb8a86741461010b575b600080fd5b34801561006657600080fd5b5061007a610075366004610bae565b61012b565b005b34801561008857600080fd5b5060005461009c906001600160a01b031681565b6040516001600160a01b03909116815260200160405180910390f35b3480156100c457600080fd5b5060015461009c906001600160a01b031681565b61007a6100e6366004610c38565b61024b565b3480156100f757600080fd5b5060025461009c906001600160a01b031681565b34801561011757600080fd5b5061007a610126366004610c71565b6108a2565b60005460405163c3c5a54760e01b81523360048201526001600160a01b039091169063c3c5a54790602401602060405180830381865afa158015610173573d6000803e3d6000fd5b505050506040513d601f19601f820116820180604052508101906101979190610cc1565b6101de5760405162461bcd60e51b8152602060048201526013602482015272155cd95c881b9bdd081c9959da5cdd195c9959606a1b60448201526064015b60405180910390fd5b6002546040516273b34560e21b81526001600160a01b03909116906301cecd1490610213908790879087908790600401610d2b565b600060405180830381600087803b15801561022d57600080fd5b505af1158015610241573d6000803e3d6000fd5b5050505050505050565b60005460405163c3c5a54760e01b81523360048201526001600160a01b039091169063c3c5a54790602401602060405180830381865afa158015610293573d6000803e3d6000fd5b505050506040513d601f19601f820116820180604052508101906102b79190610cc1565b6102f95760405162461bcd60e51b8152602060048201526013602482015272155cd95c881b9bdd081c9959da5cdd195c9959606a1b60448201526064016101d5565b60025460405163db34d12360e01b8152600481018590526000916001600160a01b03169063db34d12390602401602060405180830381865afa158015610343573d6000803e3d6000fd5b505050506040513d601f19601f820116820180604052508101906103679190610d64565b6002546040516388c8b59160e01b8152600481018790529192506000916001600160a01b03909116906388c8b59190602401602060405180830381865afa1580156103b6573d6000803e3d6000fd5b505050506040513d601f19601f820116820180604052508101906103da9190610d7d565b90506000841161042c5760405162461bcd60e51b815260206004820152601f60248201527f5175616e74697479206d7573742062652067726561746572207468616e20300060448201526064016101d5565b8382101561047c5760405162461bcd60e51b815260206004820152601c60248201527f4e6f7420656e6f756768207175616e7469747920696e2073746f636b0000000060448201526064016101d5565b6002546040516339efdf7f60e21b8152600481018790526000916001600160a01b03169063e7bf7dfc90602401602060405180830381865afa1580156104c6573d6000803e3d6000fd5b505050506040513d601f19601f820116820180604052508101906104ea9190610d64565b90506000808060009054906101000a90046001600160a01b03166001600160a01b031663a607a8d96040518163ffffffff1660e01b8152600401602060405180830381865afa158015610541573d6000803e3d6000fd5b505050506040513d601f19601f820116820180604052508101906105659190610d64565b90508515156000036105dc5761057b8184610dbc565b92506105878134610dbc565b91506105938784610dbc565b8210156105d75760405162461bcd60e51b8152602060048201526012602482015271496e73756666696369656e742066756e647360701b60448201526064016101d5565b61062a565b6105e68784610dbc565b34101561062a5760405162461bcd60e51b8152602060048201526012602482015271496e73756666696369656e742066756e647360701b60448201526064016101d5565b6000546002546040516339efdf7f60e21b8152600481018b90526001600160a01b039283169263e0b1cccb9288928c929091169063e7bf7dfc90602401602060405180830381865afa158015610684573d6000803e3d6000fd5b505050506040513d601f19601f820116820180604052508101906106a89190610d64565b6106b29190610dbc565b6040516001600160e01b031960e085901b1681526001600160a01b0390921660048301526024820152604401600060405180830381600087803b1580156106f857600080fd5b505af115801561070c573d6000803e3d6000fd5b505060005460405163516f7bef60e11b8152336004820152602481018c90526001600160a01b03909116925063a2def7de9150604401600060405180830381600087803b15801561075c57600080fd5b505af1158015610770573d6000803e3d6000fd5b50506002546001600160a01b0316915063878d96639050896107928a89610dd9565b6040516001600160e01b031960e085901b16815260048101929092526024820152604401600060405180830381600087803b1580156107d057600080fd5b505af11580156107e4573d6000803e3d6000fd5b5050505085156108415760006107fa8885610dbc565b6108049034610dd9565b9050801561083b57604051339082156108fc029083906000818181858888f19350505050158015610839573d6000803e3d6000fd5b505b50610241565b600061084d8885610dbc565b6108579084610dd9565b9050801561089757336108fc61086d8484610dec565b6040518115909202916000818181858888f19350505050158015610895573d6000803e3d6000fd5b505b505050505050505050565b6000805460405163304ddb2b60e11b815233600482015285929182916001600160a01b039091169063609bb65690602401602060405180830381865afa1580156108f0573d6000803e3d6000fd5b505050506040513d601f19601f820116820180604052508101906109149190610d64565b60008054604051636372ec7b60e11b815233600482015292935090916001600160a01b039091169063c6e5d8f690602401600060405180830381865afa158015610962573d6000803e3d6000fd5b505050506040513d6000823e601f3d908101601f1916820160405261098a9190810190610e0e565b905060005b828110156109cf5760008282815181106109ab576109ab610ebf565b602002602001015190508581036109c65760019450506109cf565b5060010161098f565b5082610a285760405162461bcd60e51b815260206004820152602260248201527f5573657220686173206e6f7420707572636861736564207468652070726f647560448201526118dd60f21b60648201526084016101d5565b60018610158015610a3a575060058611155b610a865760405162461bcd60e51b815260206004820152601e60248201527f526174696e67206d757374206265206265747765656e203120616e642035000060448201526064016101d5565b600154604051639f039c2160e01b81526001600160a01b0390911690639f039c2190610abc908a908a9042908b90600401610ed5565b600060405180830381600087803b158015610ad657600080fd5b505af1158015610aea573d6000803e3d6000fd5b5050505050505050505050565b634e487b7160e01b600052604160045260246000fd5b604051601f8201601f1916810167ffffffffffffffff81118282101715610b3657610b36610af7565b604052919050565b600082601f830112610b4f57600080fd5b813567ffffffffffffffff811115610b6957610b69610af7565b610b7c601f8201601f1916602001610b0d565b818152846020838601011115610b9157600080fd5b816020850160208301376000918101602001919091529392505050565b60008060008060808587031215610bc457600080fd5b843567ffffffffffffffff811115610bdb57600080fd5b610be787828801610b3e565b945050602085013567ffffffffffffffff811115610c0457600080fd5b610c1087828801610b3e565b949794965050505060408301359260600135919050565b8015158114610c3557600080fd5b50565b600080600060608486031215610c4d57600080fd5b83359250602084013591506040840135610c6681610c27565b809150509250925092565b600080600060608486031215610c8657600080fd5b8335925060208401359150604084013567ffffffffffffffff811115610cab57600080fd5b610cb786828701610b3e565b9150509250925092565b600060208284031215610cd357600080fd5b8151610cde81610c27565b9392505050565b6000815180845260005b81811015610d0b57602081850181015186830182015201610cef565b506000602082860101526020601f19601f83011685010191505092915050565b608081526000610d3e6080830187610ce5565b8281036020840152610d508187610ce5565b604084019590955250506060015292915050565b600060208284031215610d7657600080fd5b5051919050565b600060208284031215610d8f57600080fd5b81516001600160a01b0381168114610cde57600080fd5b634e487b7160e01b600052601160045260246000fd5b8082028115828204841417610dd357610dd3610da6565b92915050565b81810381811115610dd357610dd3610da6565b600082610e0957634e487b7160e01b600052601260045260246000fd5b500490565b600060208284031215610e2057600080fd5b815167ffffffffffffffff811115610e3757600080fd5b8201601f81018413610e4857600080fd5b805167ffffffffffffffff811115610e6257610e62610af7565b8060051b610e7260208201610b0d565b91825260208184018101929081019087841115610e8e57600080fd5b6020850194505b83851015610eb457845180835260209586019590935090910190610e95565b979650505050505050565b634e487b7160e01b600052603260045260246000fd5b848152836020820152826040820152608060608201526000610efa6080830184610ce5565b969550505050505056fea264697066735822122057bc3b5060242243b63513fa05eae5ba5be999f4be0ae7ca37e0f98826fe05a364736f6c634300081b0033",
  "linkReferences": {},
  "deployedLinkReferences": {}
}