{
  "_format": "hh-sol-artifact-1",
  "contractName": "FeedConsumer",
  "sourceName": "@chainlink/contracts/src/v0.8/tests/FeedConsumer.sol",
  "abi": [
    {
      "inputs": [
        {
          "internalType": "address",
          "name": "feedAddress",
          "type": "address"
        }
      ],
      "stateMutability": "nonpayable",
      "type": "constructor"
    },
    {
      "inputs": [],
      "name": "AGGREGATOR",
      "outputs": [
        {
          "internalType": "contract AggregatorV2V3Interface",
          "name": "",
          "type": "address"
        }
      ],
      "stateMutability": "view",
      "type": "function"
    },
    {
      "inputs": [],
      "name": "decimals",
      "outputs": [
        {
          "internalType": "uint8",
          "name": "",
          "type": "uint8"
        }
      ],
      "stateMutability": "view",
      "type": "function"
    },
    {
      "inputs": [],
      "name": "description",
      "outputs": [
        {
          "internalType": "string",
          "name": "",
          "type": "string"
        }
      ],
      "stateMutability": "view",
      "type": "function"
    },
    {
      "inputs": [
        {
          "internalType": "uint256",
          "name": "roundId",
          "type": "uint256"
        }
      ],
      "name": "getAnswer",
      "outputs": [
        {
          "internalType": "int256",
          "name": "",
          "type": "int256"
        }
      ],
      "stateMutability": "view",
      "type": "function"
    },
    {
      "inputs": [
        {
          "internalType": "uint80",
          "name": "_roundId",
          "type": "uint80"
        }
      ],
      "name": "getRoundData",
      "outputs": [
        {
          "internalType": "uint80",
          "name": "roundId",
          "type": "uint80"
        },
        {
          "internalType": "int256",
          "name": "answer",
          "type": "int256"
        },
        {
          "internalType": "uint256",
          "name": "startedAt",
          "type": "uint256"
        },
        {
          "internalType": "uint256",
          "name": "updatedAt",
          "type": "uint256"
        },
        {
          "internalType": "uint80",
          "name": "answeredInRound",
          "type": "uint80"
        }
      ],
      "stateMutability": "view",
      "type": "function"
    },
    {
      "inputs": [
        {
          "internalType": "uint256",
          "name": "roundId",
          "type": "uint256"
        }
      ],
      "name": "getTimestamp",
      "outputs": [
        {
          "internalType": "uint256",
          "name": "",
          "type": "uint256"
        }
      ],
      "stateMutability": "view",
      "type": "function"
    },
    {
      "inputs": [],
      "name": "latestAnswer",
      "outputs": [
        {
          "internalType": "int256",
          "name": "answer",
          "type": "int256"
        }
      ],
      "stateMutability": "view",
      "type": "function"
    },
    {
      "inputs": [],
      "name": "latestRound",
      "outputs": [
        {
          "internalType": "uint256",
          "name": "",
          "type": "uint256"
        }
      ],
      "stateMutability": "view",
      "type": "function"
    },
    {
      "inputs": [],
      "name": "latestRoundData",
      "outputs": [
        {
          "internalType": "uint80",
          "name": "roundId",
          "type": "uint80"
        },
        {
          "internalType": "int256",
          "name": "answer",
          "type": "int256"
        },
        {
          "internalType": "uint256",
          "name": "startedAt",
          "type": "uint256"
        },
        {
          "internalType": "uint256",
          "name": "updatedAt",
          "type": "uint256"
        },
        {
          "internalType": "uint80",
          "name": "answeredInRound",
          "type": "uint80"
        }
      ],
      "stateMutability": "view",
      "type": "function"
    },
    {
      "inputs": [],
      "name": "latestTimestamp",
      "outputs": [
        {
          "internalType": "uint256",
          "name": "",
          "type": "uint256"
        }
      ],
      "stateMutability": "view",
      "type": "function"
    },
    {
      "inputs": [],
      "name": "version",
      "outputs": [
        {
          "internalType": "uint256",
          "name": "",
          "type": "uint256"
        }
      ],
      "stateMutability": "view",
      "type": "function"
    }
  ],
  "bytecode": "0x60a060405234801561001057600080fd5b506040516109c03803806109c083398101604081905261002f91610040565b6001600160a01b0316608052610070565b60006020828403121561005257600080fd5b81516001600160a01b038116811461006957600080fd5b9392505050565b6080516108ef6100d160003960008181610185015281816101cb01528181610254015281816102d8015281816103380152818161039801528181610420015281816104b001528181610546015281816105d9015261061a01526108ef6000f3fe608060405234801561001057600080fd5b50600436106100a95760003560e01c80638205bf6a116100715780638205bf6a146101085780639a6fc8f514610110578063b5ab58dc1461015a578063b633620c1461016d578063eb365adc14610180578063feaf968c146101bf57600080fd5b8063313ce567146100ae57806350d25bcd146100cd57806354fd4d50146100e3578063668a0f02146100eb5780637284e416146100f3575b600080fd5b6100b66101c7565b60405160ff90911681526020015b60405180910390f35b6100d5610250565b6040519081526020016100c4565b6100d56102d4565b6100d5610334565b6100fb610394565b6040516100c491906106cf565b6100d561041c565b61012361011e36600461071d565b61047c565b6040805169ffffffffffffffffffff968716815260208101959095528401929092526060830152909116608082015260a0016100c4565b6100d5610168366004610741565b61052d565b6100d561017b366004610741565b6105c0565b6101a77f000000000000000000000000000000000000000000000000000000000000000081565b6040516001600160a01b0390911681526020016100c4565b610123610610565b60007f00000000000000000000000000000000000000000000000000000000000000006001600160a01b031663313ce5676040518163ffffffff1660e01b8152600401602060405180830381865afa158015610227573d6000803e3d6000fd5b505050506040513d601f19601f8201168201806040525081019061024b919061075a565b905090565b60007f00000000000000000000000000000000000000000000000000000000000000006001600160a01b03166350d25bcd6040518163ffffffff1660e01b8152600401602060405180830381865afa1580156102b0573d6000803e3d6000fd5b505050506040513d601f19601f8201168201806040525081019061024b919061077d565b60007f00000000000000000000000000000000000000000000000000000000000000006001600160a01b03166354fd4d506040518163ffffffff1660e01b8152600401602060405180830381865afa1580156102b0573d6000803e3d6000fd5b60007f00000000000000000000000000000000000000000000000000000000000000006001600160a01b031663668a0f026040518163ffffffff1660e01b8152600401602060405180830381865afa1580156102b0573d6000803e3d6000fd5b60607f00000000000000000000000000000000000000000000000000000000000000006001600160a01b0316637284e4166040518163ffffffff1660e01b8152600401600060405180830381865afa1580156103f4573d6000803e3d6000fd5b505050506040513d6000823e601f3d908101601f1916820160405261024b91908101906107ac565b60007f00000000000000000000000000000000000000000000000000000000000000006001600160a01b0316638205bf6a6040518163ffffffff1660e01b8152600401602060405180830381865afa1580156102b0573d6000803e3d6000fd5b604051639a6fc8f560e01b815269ffffffffffffffffffff8216600482015260009081908190819081906001600160a01b037f00000000000000000000000000000000000000000000000000000000000000001690639a6fc8f59060240160a060405180830381865afa1580156104f7573d6000803e3d6000fd5b505050506040513d601f19601f8201168201806040525081019061051b9190610861565b939a9299509097509550909350915050565b604051632d6ad63760e21b8152600481018290526000907f00000000000000000000000000000000000000000000000000000000000000006001600160a01b03169063b5ab58dc906024015b602060405180830381865afa158015610596573d6000803e3d6000fd5b505050506040513d601f19601f820116820180604052508101906105ba919061077d565b92915050565b604051632d8cd88360e21b8152600481018290526000907f00000000000000000000000000000000000000000000000000000000000000006001600160a01b03169063b633620c90602401610579565b60008060008060007f00000000000000000000000000000000000000000000000000000000000000006001600160a01b031663feaf968c6040518163ffffffff1660e01b815260040160a060405180830381865afa158015610676573d6000803e3d6000fd5b505050506040513d601f19601f8201168201806040525081019061069a9190610861565b945094509450945094509091929394565b60005b838110156106c65781810151838201526020016106ae565b50506000910152565b60208152600082518060208401526106ee8160408501602087016106ab565b601f01601f19169190910160400192915050565b69ffffffffffffffffffff8116811461071a57600080fd5b50565b60006020828403121561072f57600080fd5b813561073a81610702565b9392505050565b60006020828403121561075357600080fd5b5035919050565b60006020828403121561076c57600080fd5b815160ff8116811461073a57600080fd5b60006020828403121561078f57600080fd5b5051919050565b634e487b7160e01b600052604160045260246000fd5b6000602082840312156107be57600080fd5b815167ffffffffffffffff8111156107d557600080fd5b8201601f810184136107e657600080fd5b805167ffffffffffffffff81111561080057610800610796565b604051601f8201601f19908116603f0116810167ffffffffffffffff8111828210171561082f5761082f610796565b60405281815282820160200186101561084757600080fd5b6108588260208301602086016106ab565b95945050505050565b600080600080600060a0868803121561087957600080fd5b855161088481610702565b60208701516040880151606089015160808a0151939850919650945092506108ab81610702565b80915050929550929590935056fea2646970667358221220c0c055e2441bd3fe1974d0e86d3529ab5034a889c0b1468328b7997804193fed64736f6c634300081b0033",
  "linkReferences": {},
  "deployedLinkReferences": {}
}