{
  "_format": "hh-sol-artifact-1",
  "contractName": "UserSystem",
  "sourceName": "contracts/UserSystem.sol",
  "abi": [
    {
      "inputs": [],
      "stateMutability": "nonpayable",
      "type": "constructor"
    },
    {
      "anonymous": false,
      "inputs": [
        {
          "indexed": false,
          "internalType": "address",
          "name": "user",
          "type": "address"
        },
        {
          "indexed": false,
          "internalType": "uint256",
          "name": "amount",
          "type": "uint256"
        }
      ],
      "name": "Withdrawal",
      "type": "event"
    },
    {
      "inputs": [
        {
          "internalType": "address",
          "name": "user",
          "type": "address"
        },
        {
          "internalType": "uint256",
          "name": "productId",
          "type": "uint256"
        }
      ],
      "name": "addUserPurchase",
      "outputs": [],
      "stateMutability": "nonpayable",
      "type": "function"
    },
    {
      "inputs": [],
      "name": "getBalance",
      "outputs": [
        {
          "internalType": "uint256",
          "name": "",
          "type": "uint256"
        }
      ],
      "stateMutability": "view",
      "type": "function"
    },
    {
      "inputs": [],
      "name": "getETHPrice",
      "outputs": [
        {
          "internalType": "uint256",
          "name": "",
          "type": "uint256"
        }
      ],
      "stateMutability": "view",
      "type": "function"
    },
    {
      "inputs": [
        {
          "internalType": "address",
          "name": "user",
          "type": "address"
        }
      ],
      "name": "getUserPurchases",
      "outputs": [
        {
          "internalType": "uint256[]",
          "name": "",
          "type": "uint256[]"
        }
      ],
      "stateMutability": "view",
      "type": "function"
    },
    {
      "inputs": [
        {
          "internalType": "address",
          "name": "user",
          "type": "address"
        }
      ],
      "name": "getUserPurchasesNumber",
      "outputs": [
        {
          "internalType": "uint256",
          "name": "",
          "type": "uint256"
        }
      ],
      "stateMutability": "view",
      "type": "function"
    },
    {
      "inputs": [
        {
          "internalType": "address",
          "name": "user",
          "type": "address"
        },
        {
          "internalType": "uint256",
          "name": "amount",
          "type": "uint256"
        }
      ],
      "name": "updateBalance",
      "outputs": [],
      "stateMutability": "payable",
      "type": "function"
    },
    {
      "inputs": [
        {
          "internalType": "address",
          "name": "",
          "type": "address"
        },
        {
          "internalType": "uint256",
          "name": "",
          "type": "uint256"
        }
      ],
      "name": "userPurchases",
      "outputs": [
        {
          "internalType": "uint256",
          "name": "",
          "type": "uint256"
        }
      ],
      "stateMutability": "view",
      "type": "function"
    },
    {
      "inputs": [
        {
          "internalType": "uint256",
          "name": "withdrawAmount",
          "type": "uint256"
        }
      ],
      "name": "withdrawBalance",
      "outputs": [],
      "stateMutability": "nonpayable",
      "type": "function"
    }
  ],
  "bytecode": "0x6080604052348015600f57600080fd5b50600280546001600160a01b03191673694aa1769357215de4fac081bf1f309adc325306179055610607806100456000396000f3fe60806040526004361061007b5760003560e01c8063c6e5d8f61161004e578063c6e5d8f614610144578063cf2c033414610171578063da76d5cd14610191578063e0b1cccb146101b157600080fd5b806312065fe014610080578063609bb656146100b1578063a2def7de146100e7578063a607a8d91461012f575b600080fd5b34801561008c57600080fd5b50336000908152602081905260409020545b6040519081526020015b60405180910390f35b3480156100bd57600080fd5b5061009e6100cc36600461047b565b6001600160a01b031660009081526001602052604090205490565b3480156100f357600080fd5b5061012d61010236600461049d565b6001600160a01b03909116600090815260016020818152604083208054928301815583529091200155565b005b34801561013b57600080fd5b5061009e6101c4565b34801561015057600080fd5b5061016461015f36600461047b565b610249565b6040516100a891906104c7565b34801561017d57600080fd5b5061009e61018c36600461049d565b6102b5565b34801561019d57600080fd5b5061012d6101ac36600461050a565b6102e6565b61012d6101bf36600461049d565b6103e6565b600080600260009054906101000a90046001600160a01b03166001600160a01b031663feaf968c6040518163ffffffff1660e01b815260040160a060405180830381865afa15801561021a573d6000803e3d6000fd5b505050506040513d601f19601f8201168201806040525081019061023e919061053d565b509195945050505050565b6001600160a01b0381166000908152600160209081526040918290208054835181840281018401909452808452606093928301828280156102a957602002820191906000526020600020905b815481526020019060010190808311610295575b50505050509050919050565b600160205281600052604060002081815481106102d157600080fd5b90600052602060002001600091509150505481565b336000908152602081905260409020548181108015906103065750600082115b6103575760405162461bcd60e51b815260206004820152601e60248201527f4e6f7420656e6f7567682062616c616e636520746f207769746864726177000060448201526064015b60405180910390fd5b33600090815260208190526040812080548492906103769084906105a5565b9091555050604051339083156108fc029084906000818181858888f193505050501580156103a8573d6000803e3d6000fd5b5060408051338152602081018490527f7fcf532c15f0a6db0bd6d0e038bea71d30d808c7d98cb3bf7268a95bf5081b65910160405180910390a15050565b8034101561042e5760405162461bcd60e51b8152602060048201526015602482015274125b98dbdc9c9958dd08185b5bdd5b9d081cd95b9d605a1b604482015260640161034e565b6001600160a01b038216600090815260208190526040812080548392906104569084906105be565b90915550505050565b80356001600160a01b038116811461047657600080fd5b919050565b60006020828403121561048d57600080fd5b6104968261045f565b9392505050565b600080604083850312156104b057600080fd5b6104b98361045f565b946020939093013593505050565b602080825282518282018190526000918401906040840190835b818110156104ff5783518352602093840193909201916001016104e1565b509095945050505050565b60006020828403121561051c57600080fd5b5035919050565b805169ffffffffffffffffffff8116811461047657600080fd5b600080600080600060a0868803121561055557600080fd5b61055e86610523565b6020870151604088015160608901519297509095509350915061058360808701610523565b90509295509295909350565b634e487b7160e01b600052601160045260246000fd5b818103818111156105b8576105b861058f565b92915050565b808201808211156105b8576105b861058f56fea26469706673582212205c703e1c39cab6d73a4e5018889939c5f1896712983b3aac02fcfe60200634e664736f6c634300081b0033",
  "linkReferences": {},
  "deployedLinkReferences": {}
}