{
  "_format": "hh-sol-artifact-1",
  "contractName": "UserSystem",
  "sourceName": "contracts/UserSystem.sol",
  "abi": [
    {
      "inputs": [
        {
          "internalType": "address",
          "name": "user",
          "type": "address"
        },
        {
          "internalType": "uint256",
          "name": "productId",
          "type": "uint256"
        }
      ],
      "name": "addUserPurchase",
      "outputs": [],
      "stateMutability": "nonpayable",
      "type": "function"
    },
    {
      "inputs": [],
      "name": "getETHPrice",
      "outputs": [
        {
          "internalType": "uint256",
          "name": "",
          "type": "uint256"
        }
      ],
      "stateMutability": "view",
      "type": "function"
    },
    {
      "inputs": [
        {
          "internalType": "address",
          "name": "user",
          "type": "address"
        }
      ],
      "name": "getUserPurchases",
      "outputs": [
        {
          "internalType": "uint256[]",
          "name": "",
          "type": "uint256[]"
        }
      ],
      "stateMutability": "view",
      "type": "function"
    },
    {
      "inputs": [
        {
          "internalType": "address",
          "name": "user",
          "type": "address"
        }
      ],
      "name": "getUserPurchasesNumber",
      "outputs": [
        {
          "internalType": "uint256",
          "name": "",
          "type": "uint256"
        }
      ],
      "stateMutability": "view",
      "type": "function"
    },
    {
      "inputs": [
        {
          "internalType": "address",
          "name": "",
          "type": "address"
        }
      ],
      "name": "isRegistered",
      "outputs": [
        {
          "internalType": "bool",
          "name": "",
          "type": "bool"
        }
      ],
      "stateMutability": "view",
      "type": "function"
    },
    {
      "inputs": [],
      "name": "registerUser",
      "outputs": [],
      "stateMutability": "nonpayable",
      "type": "function"
    },
    {
      "inputs": [
        {
          "internalType": "address",
          "name": "user",
          "type": "address"
        },
        {
          "internalType": "uint256",
          "name": "amount",
          "type": "uint256"
        }
      ],
      "name": "updateBalance",
      "outputs": [],
      "stateMutability": "nonpayable",
      "type": "function"
    },
    {
      "inputs": [
        {
          "internalType": "address",
          "name": "",
          "type": "address"
        },
        {
          "internalType": "uint256",
          "name": "",
          "type": "uint256"
        }
      ],
      "name": "userPurchases",
      "outputs": [
        {
          "internalType": "uint256",
          "name": "",
          "type": "uint256"
        }
      ],
      "stateMutability": "view",
      "type": "function"
    },
    {
      "inputs": [
        {
          "internalType": "uint256",
          "name": "withdrawAmount",
          "type": "uint256"
        }
      ],
      "name": "withdrawBalance",
      "outputs": [],
      "stateMutability": "nonpayable",
      "type": "function"
    }
  ],
  "bytecode": "0x6080604052600380546001600160a01b03191673694aa1769357215de4fac081bf1f309adc325306179055348015603557600080fd5b506106b6806100456000396000f3fe608060405234801561001057600080fd5b50600436106100935760003560e01c8063c3c5a54711610066578063c3c5a54714610104578063c6e5d8f614610137578063cf2c033414610157578063da76d5cd1461016a578063e0b1cccb1461017d57600080fd5b80634d3820eb14610098578063609bb656146100c3578063a2def7de146100e9578063a607a8d9146100fc575b600080fd5b6100c1336000908152600160208181526040808420805460ff1916909317909255829052812055565b005b6100d66100d13660046104fd565b610190565b6040519081526020015b60405180910390f35b6100c16100f736600461051f565b6101e8565b6100d6610243565b6101276101123660046104fd565b60016020526000908152604090205460ff1681565b60405190151581526020016100e0565b61014a6101453660046104fd565b6102c8565b6040516100e09190610549565b6100d661016536600461051f565b610364565b6100c161017836600461058c565b610395565b6100c161018b36600461051f565b610486565b3360009081526001602052604081205460ff166101c85760405162461bcd60e51b81526004016101bf906105a5565b60405180910390fd5b506001600160a01b0381166000908152600260205260409020545b919050565b3360009081526001602052604090205460ff166102175760405162461bcd60e51b81526004016101bf906105a5565b6001600160a01b0390911660009081526002602090815260408220805460018101825590835291200155565b600080600360009054906101000a90046001600160a01b03166001600160a01b031663feaf968c6040518163ffffffff1660e01b815260040160a060405180830381865afa158015610299573d6000803e3d6000fd5b505050506040513d601f19601f820116820180604052508101906102bd91906105ec565b509195945050505050565b3360009081526001602052604090205460609060ff166102fa5760405162461bcd60e51b81526004016101bf906105a5565b6001600160a01b0382166000908152600260209081526040918290208054835181840281018401909452808452909183018282801561035857602002820191906000526020600020905b815481526020019060010190808311610344575b50505050509050919050565b6002602052816000526040600020818154811061038057600080fd5b90600052602060002001600091509150505481565b3360009081526001602052604090205460ff166103c45760405162461bcd60e51b81526004016101bf906105a5565b336000908152602081905260409020548181108015906103e45750600082115b6104305760405162461bcd60e51b815260206004820152601e60248201527f4e6f7420656e6f7567682062616c616e636520746f207769746864726177000060448201526064016101bf565b336000908152602081905260408120805484929061044f908490610654565b9091555050604051339083156108fc029084906000818181858888f19350505050158015610481573d6000803e3d6000fd5b505050565b3360009081526001602052604090205460ff166104b55760405162461bcd60e51b81526004016101bf906105a5565b6001600160a01b038216600090815260208190526040812080548392906104dd90849061066d565b90915550505050565b80356001600160a01b03811681146101e357600080fd5b60006020828403121561050f57600080fd5b610518826104e6565b9392505050565b6000806040838503121561053257600080fd5b61053b836104e6565b946020939093013593505050565b602080825282518282018190526000918401906040840190835b81811015610581578351835260209384019390920191600101610563565b509095945050505050565b60006020828403121561059e57600080fd5b5035919050565b602080825260139082015272155cd95c881b9bdd081c9959da5cdd195c9959606a1b604082015260600190565b805169ffffffffffffffffffff811681146101e357600080fd5b600080600080600060a0868803121561060457600080fd5b61060d866105d2565b60208701516040880151606089015192975090955093509150610632608087016105d2565b90509295509295909350565b634e487b7160e01b600052601160045260246000fd5b818103818111156106675761066761063e565b92915050565b808201808211156106675761066761063e56fea2646970667358221220e25b29b5c8079466373b37c829affd15c35e0f399d3afb3f9c5f637f8c4e42ae64736f6c634300081b0033",
  "linkReferences": {},
  "deployedLinkReferences": {}
}