{
  "_format": "hh-sol-artifact-1",
  "contractName": "ReputationSystem",
  "sourceName": "contracts/ReputationSystem.sol",
  "abi": [
    {
      "anonymous": false,
      "inputs": [
        {
          "indexed": false,
          "internalType": "uint256",
          "name": "productId",
          "type": "uint256"
        },
        {
          "indexed": false,
          "internalType": "address",
          "name": "reviewer",
          "type": "address"
        },
        {
          "indexed": false,
          "internalType": "uint256",
          "name": "rating",
          "type": "uint256"
        },
        {
          "indexed": false,
          "internalType": "string",
          "name": "comments",
          "type": "string"
        }
      ],
      "name": "FeedbackSubmitted",
      "type": "event"
    },
    {
      "inputs": [
        {
          "internalType": "uint256",
          "name": "productId",
          "type": "uint256"
        },
        {
          "internalType": "uint256",
          "name": "rating",
          "type": "uint256"
        },
        {
          "internalType": "uint256",
          "name": "timestamp",
          "type": "uint256"
        },
        {
          "internalType": "string",
          "name": "comments",
          "type": "string"
        }
      ],
      "name": "addProductFeedback",
      "outputs": [],
      "stateMutability": "nonpayable",
      "type": "function"
    },
    {
      "inputs": [
        {
          "internalType": "uint256",
          "name": "rating",
          "type": "uint256"
        },
        {
          "internalType": "uint256",
          "name": "currentTime",
          "type": "uint256"
        },
        {
          "internalType": "uint256",
          "name": "timestamp",
          "type": "uint256"
        }
      ],
      "name": "calculateContribution",
      "outputs": [
        {
          "internalType": "uint256",
          "name": "",
          "type": "uint256"
        }
      ],
      "stateMutability": "pure",
      "type": "function"
    },
    {
      "inputs": [
        {
          "internalType": "uint256",
          "name": "productId",
          "type": "uint256"
        },
        {
          "internalType": "uint256",
          "name": "feedbackIndex",
          "type": "uint256"
        }
      ],
      "name": "getProductFeedback",
      "outputs": [
        {
          "components": [
            {
              "internalType": "uint256",
              "name": "rating",
              "type": "uint256"
            },
            {
              "internalType": "uint256",
              "name": "timestamp",
              "type": "uint256"
            },
            {
              "internalType": "string",
              "name": "comments",
              "type": "string"
            }
          ],
          "internalType": "struct ReputationSystem.Feedback",
          "name": "",
          "type": "tuple"
        }
      ],
      "stateMutability": "view",
      "type": "function"
    },
    {
      "inputs": [
        {
          "internalType": "uint256",
          "name": "productId",
          "type": "uint256"
        }
      ],
      "name": "getProductFeedbackCount",
      "outputs": [
        {
          "internalType": "uint256",
          "name": "",
          "type": "uint256"
        }
      ],
      "stateMutability": "view",
      "type": "function"
    },
    {
      "inputs": [
        {
          "internalType": "uint256",
          "name": "productId",
          "type": "uint256"
        }
      ],
      "name": "getProductFeedbackScore",
      "outputs": [
        {
          "internalType": "uint256",
          "name": "",
          "type": "uint256"
        }
      ],
      "stateMutability": "view",
      "type": "function"
    },
    {
      "inputs": [
        {
          "internalType": "uint256",
          "name": "productId",
          "type": "uint256"
        }
      ],
      "name": "getProductFeedbacksNumber",
      "outputs": [
        {
          "internalType": "uint256",
          "name": "",
          "type": "uint256"
        }
      ],
      "stateMutability": "view",
      "type": "function"
    },
    {
      "inputs": [
        {
          "internalType": "uint256",
          "name": "",
          "type": "uint256"
        },
        {
          "internalType": "uint256",
          "name": "",
          "type": "uint256"
        }
      ],
      "name": "productFeedbacks",
      "outputs": [
        {
          "internalType": "uint256",
          "name": "rating",
          "type": "uint256"
        },
        {
          "internalType": "uint256",
          "name": "timestamp",
          "type": "uint256"
        },
        {
          "internalType": "string",
          "name": "comments",
          "type": "string"
        }
      ],
      "stateMutability": "view",
      "type": "function"
    }
  ],
  "bytecode": "0x6080604052348015600f57600080fd5b506109cd8061001f6000396000f3fe608060405234801561001057600080fd5b506004361061007d5760003560e01c80634b480a741161005b5780634b480a74146100c85780639f039c21146100db578063e21752f2146100f0578063f29055fa1461011057600080fd5b80630e8a646d146100825780632f2cf5c2146100a85780633b81465c146100a8575b600080fd5b610095610090366004610559565b610132565b6040519081526020015b60405180910390f35b6100956100b6366004610585565b60009081526020819052604090205490565b6100956100d6366004610585565b610187565b6100ee6100e93660046105b4565b610285565b005b6101036100fe36600461068a565b61032b565b60405161009f91906106f2565b61012361011e36600461068a565b610469565b60405161009f93929190610729565b60008061013f8385610767565b90506301e13380600081831161015e576101598383610767565b610161565b60005b9050600061016f828961077a565b905061017b8184610538565b98975050505050505050565b600081815260208190526040812054829082906101bf5760405162461bcd60e51b81526004016101b690610791565b60405180910390fd5b600042815b6000878152602081905260409020548110156102615761024d6000808981526020019081526020016000208281548110610200576102006107d7565b906000526020600020906003020160000154836000808b81526020019081526020016000208481548110610236576102366107d7565b906000526020600020906003020160010154610132565b61025790846107ed565b92506001016101c4565b5060008681526020819052604090205461027b9083610800565b9695505050505050565b604080516060810182528481526020818101858152828401858152600089815280845294852080546001808201835591875293909520845160039094020192835590519382019390935591519091829160028201906102e490826108ab565b5050507fd77df07942cbe43bb6c279f585a1c4739609e040dedf3665ea5ba07523dcb8fc8533868560405161031c949392919061096a565b60405180910390a15050505050565b61034f60405180606001604052806000815260200160008152602001606081525090565b6000838152602081905260409020548390839081106103805760405162461bcd60e51b81526004016101b690610791565b60008581526020819052604090208054859081106103a0576103a06107d7565b906000526020600020906003020160405180606001604052908160008201548152602001600182015481526020016002820180546103dd90610822565b80601f016020809104026020016040519081016040528092919081815260200182805461040990610822565b80156104565780601f1061042b57610100808354040283529160200191610456565b820191906000526020600020905b81548152906001019060200180831161043957829003601f168201915b5050505050815250509250505092915050565b6000602052816000526040600020818154811061048557600080fd5b9060005260206000209060030201600091509150508060000154908060010154908060020180546104b590610822565b80601f01602080910402602001604051908101604052809291908181526020018280546104e190610822565b801561052e5780601f106105035761010080835404028352916020019161052e565b820191906000526020600020905b81548152906001019060200180831161051157829003601f168201915b5050505050905083565b60008161054660648561077a565b6105509190610800565b90505b92915050565b60008060006060848603121561056e57600080fd5b505081359360208301359350604090920135919050565b60006020828403121561059757600080fd5b5035919050565b634e487b7160e01b600052604160045260246000fd5b600080600080608085870312156105ca57600080fd5b843593506020850135925060408501359150606085013567ffffffffffffffff8111156105f657600080fd5b8501601f8101871361060757600080fd5b803567ffffffffffffffff8111156106215761062161059e565b604051601f8201601f19908116603f0116810167ffffffffffffffff811182821017156106505761065061059e565b60405281815282820160200189101561066857600080fd5b8160208401602083013760006020838301015280935050505092959194509250565b6000806040838503121561069d57600080fd5b50508035926020909101359150565b6000815180845260005b818110156106d2576020818501810151868301820152016106b6565b506000602082860101526020601f19601f83011685010191505092915050565b6020815281516020820152602082015160408201526000604083015160608084015261072160808401826106ac565b949350505050565b83815282602082015260606040820152600061074860608301846106ac565b95945050505050565b634e487b7160e01b600052601160045260246000fd5b8181038181111561055357610553610751565b808202811582820484141761055357610553610751565b60208082526026908201527f4e6f20666565646261636b7320617661696c61626c6520666f722074686520706040820152651c9bd91d58dd60d21b606082015260800190565b634e487b7160e01b600052603260045260246000fd5b8082018082111561055357610553610751565b60008261081d57634e487b7160e01b600052601260045260246000fd5b500490565b600181811c9082168061083657607f821691505b60208210810361085657634e487b7160e01b600052602260045260246000fd5b50919050565b601f8211156108a657806000526020600020601f840160051c810160208510156108835750805b601f840160051c820191505b818110156108a3576000815560010161088f565b50505b505050565b815167ffffffffffffffff8111156108c5576108c561059e565b6108d9816108d38454610822565b8461085c565b6020601f82116001811461090d57600083156108f55750848201515b600019600385901b1c1916600184901b1784556108a3565b600084815260208120601f198516915b8281101561093d578785015182556020948501946001909201910161091d565b508482101561095b5786840151600019600387901b60f8161c191681555b50505050600190811b01905550565b84815260018060a01b038416602082015282604082015260806060820152600061027b60808301846106ac56fea2646970667358221220b2d5ed5d589eedc4ecfa401f0fefb40b5abfdb045b956b106cc14346f912b60c64736f6c634300081b0033",
  "linkReferences": {},
  "deployedLinkReferences": {}
}