{
  "_format": "hh-sol-artifact-1",
  "contractName": "ProductSystem",
  "sourceName": "contracts/ProductSystem.sol",
  "abi": [
    {
      "anonymous": false,
      "inputs": [
        {
          "indexed": false,
          "internalType": "uint256",
          "name": "productId",
          "type": "uint256"
        },
        {
          "indexed": false,
          "internalType": "string",
          "name": "name",
          "type": "string"
        },
        {
          "indexed": false,
          "internalType": "uint256",
          "name": "price",
          "type": "uint256"
        },
        {
          "indexed": false,
          "internalType": "address",
          "name": "seller",
          "type": "address"
        },
        {
          "indexed": false,
          "internalType": "uint256",
          "name": "quantity",
          "type": "uint256"
        }
      ],
      "name": "ProductAdded",
      "type": "event"
    },
    {
      "anonymous": false,
      "inputs": [
        {
          "indexed": false,
          "internalType": "uint256",
          "name": "productId",
          "type": "uint256"
        }
      ],
      "name": "ProductOutOfStock",
      "type": "event"
    },
    {
      "inputs": [
        {
          "internalType": "string",
          "name": "name",
          "type": "string"
        },
        {
          "internalType": "string",
          "name": "description",
          "type": "string"
        },
        {
          "internalType": "uint256",
          "name": "price",
          "type": "uint256"
        },
        {
          "internalType": "uint256",
          "name": "quantity",
          "type": "uint256"
        }
      ],
      "name": "addProduct",
      "outputs": [],
      "stateMutability": "nonpayable",
      "type": "function"
    },
    {
      "inputs": [
        {
          "internalType": "uint256",
          "name": "productId",
          "type": "uint256"
        }
      ],
      "name": "getProduct",
      "outputs": [
        {
          "components": [
            {
              "internalType": "uint256",
              "name": "id",
              "type": "uint256"
            },
            {
              "internalType": "string",
              "name": "name",
              "type": "string"
            },
            {
              "internalType": "string",
              "name": "description",
              "type": "string"
            },
            {
              "internalType": "uint256",
              "name": "price",
              "type": "uint256"
            },
            {
              "internalType": "address",
              "name": "seller",
              "type": "address"
            },
            {
              "internalType": "uint256",
              "name": "quantity",
              "type": "uint256"
            }
          ],
          "internalType": "struct ProductSystem.Product",
          "name": "",
          "type": "tuple"
        }
      ],
      "stateMutability": "view",
      "type": "function"
    },
    {
      "inputs": [
        {
          "internalType": "uint256",
          "name": "productId",
          "type": "uint256"
        }
      ],
      "name": "getProductPrice",
      "outputs": [
        {
          "internalType": "uint256",
          "name": "",
          "type": "uint256"
        }
      ],
      "stateMutability": "view",
      "type": "function"
    },
    {
      "inputs": [
        {
          "internalType": "uint256",
          "name": "productId",
          "type": "uint256"
        }
      ],
      "name": "getProductQuantity",
      "outputs": [
        {
          "internalType": "uint256",
          "name": "",
          "type": "uint256"
        }
      ],
      "stateMutability": "view",
      "type": "function"
    },
    {
      "inputs": [
        {
          "internalType": "uint256",
          "name": "productId",
          "type": "uint256"
        }
      ],
      "name": "getProductSeller",
      "outputs": [
        {
          "internalType": "address",
          "name": "",
          "type": "address"
        }
      ],
      "stateMutability": "view",
      "type": "function"
    },
    {
      "inputs": [],
      "name": "getProductsNumber",
      "outputs": [
        {
          "internalType": "uint256",
          "name": "",
          "type": "uint256"
        }
      ],
      "stateMutability": "view",
      "type": "function"
    },
    {
      "inputs": [
        {
          "internalType": "uint256",
          "name": "",
          "type": "uint256"
        }
      ],
      "name": "products",
      "outputs": [
        {
          "internalType": "uint256",
          "name": "id",
          "type": "uint256"
        },
        {
          "internalType": "string",
          "name": "name",
          "type": "string"
        },
        {
          "internalType": "string",
          "name": "description",
          "type": "string"
        },
        {
          "internalType": "uint256",
          "name": "price",
          "type": "uint256"
        },
        {
          "internalType": "address",
          "name": "seller",
          "type": "address"
        },
        {
          "internalType": "uint256",
          "name": "quantity",
          "type": "uint256"
        }
      ],
      "stateMutability": "view",
      "type": "function"
    },
    {
      "inputs": [
        {
          "internalType": "uint256",
          "name": "productId",
          "type": "uint256"
        },
        {
          "internalType": "uint256",
          "name": "quantity",
          "type": "uint256"
        }
      ],
      "name": "setProductQuantity",
      "outputs": [],
      "stateMutability": "nonpayable",
      "type": "function"
    }
  ],
  "bytecode": "0x6080604052348015600f57600080fd5b50610afd8061001f6000396000f3fe608060405234801561001057600080fd5b50600436106100885760003560e01c806389c0f05b1161005b57806389c0f05b1461010e578063b9db15b414610120578063db34d12314610140578063e7bf7dfc1461015357600080fd5b806301cecd141461008d5780637acc0b20146100a2578063878d9663146100d057806388c8b591146100e3575b600080fd5b6100a061009b366004610767565b610166565b005b6100b56100b03660046107e0565b61029a565b6040516100c79695949392919061083f565b60405180910390f35b6100a06100de366004610892565b6103fe565b6100f66100f13660046107e0565b610467565b6040516001600160a01b0390911681526020016100c7565b6000545b6040519081526020016100c7565b61013361012e3660046107e0565b61049e565b6040516100c791906108b4565b61011261014e3660046107e0565b610668565b6101126101613660046107e0565b610695565b600080546040805160c081018252828152602081018881529181018790526060810186905233608082015260a081018590526001830184559280528251600683027f290decd9548b62a8d60345a988386fc84ba6bc95484008f6362f93160ef3e5638101918255915192939290917f290decd9548b62a8d60345a988386fc84ba6bc95484008f6362f93160ef3e564019061020190826109b3565b506040820151600282019061021690826109b3565b506060820151600382015560808201516004820180546001600160a01b0319166001600160a01b0390921691909117905560a0909101516005909101556040517f498bc5e351277c028e93e59ee65a3942de0736ba8bfd2685a72e1905757da0be9061028b9083908890879033908890610a72565b60405180910390a15050505050565b600081815481106102aa57600080fd5b600091825260209091206006909102018054600182018054919350906102cf9061092a565b80601f01602080910402602001604051908101604052809291908181526020018280546102fb9061092a565b80156103485780601f1061031d57610100808354040283529160200191610348565b820191906000526020600020905b81548152906001019060200180831161032b57829003601f168201915b50505050509080600201805461035d9061092a565b80601f01602080910402602001604051908101604052809291908181526020018280546103899061092a565b80156103d65780601f106103ab576101008083540402835291602001916103d6565b820191906000526020600020905b8154815290600101906020018083116103b957829003601f168201915b5050505060038301546004840154600590940154929390926001600160a01b03909116915086565b806000838154811061041257610412610ab1565b90600052602060002090600602016005018190555080600003610463576040518281527f43f5f3670f6ff6513a668522b13565d8e096fadeee0830a2d30433bf4b8f23189060200160405180910390a15b5050565b600080828154811061047b5761047b610ab1565b60009182526020909120600460069092020101546001600160a01b031692915050565b6104e06040518060c001604052806000815260200160608152602001606081526020016000815260200160006001600160a01b03168152602001600081525090565b600082815481106104f3576104f3610ab1565b90600052602060002090600602016040518060c0016040529081600082015481526020016001820180546105269061092a565b80601f01602080910402602001604051908101604052809291908181526020018280546105529061092a565b801561059f5780601f106105745761010080835404028352916020019161059f565b820191906000526020600020905b81548152906001019060200180831161058257829003601f168201915b505050505081526020016002820180546105b89061092a565b80601f01602080910402602001604051908101604052809291908181526020018280546105e49061092a565b80156106315780601f1061060657610100808354040283529160200191610631565b820191906000526020600020905b81548152906001019060200180831161061457829003601f168201915b50505091835250506003820154602082015260048201546001600160a01b0316604082015260059091015460609091015292915050565b600080828154811061067c5761067c610ab1565b9060005260206000209060060201600501549050919050565b60008082815481106106a9576106a9610ab1565b9060005260206000209060060201600301549050919050565b634e487b7160e01b600052604160045260246000fd5b600082601f8301126106e957600080fd5b813567ffffffffffffffff811115610703576107036106c2565b604051601f8201601f19908116603f0116810167ffffffffffffffff81118282101715610732576107326106c2565b60405281815283820160200185101561074a57600080fd5b816020850160208301376000918101602001919091529392505050565b6000806000806080858703121561077d57600080fd5b843567ffffffffffffffff81111561079457600080fd5b6107a0878288016106d8565b945050602085013567ffffffffffffffff8111156107bd57600080fd5b6107c9878288016106d8565b949794965050505060408301359260600135919050565b6000602082840312156107f257600080fd5b5035919050565b6000815180845260005b8181101561081f57602081850181015186830182015201610803565b506000602082860101526020601f19601f83011685010191505092915050565b86815260c06020820152600061085860c08301886107f9565b828103604084015261086a81886107f9565b606084019690965250506001600160a01b0392909216608083015260a0909101529392505050565b600080604083850312156108a557600080fd5b50508035926020909101359150565b60208152815160208201526000602083015160c060408401526108da60e08401826107f9565b90506040840151601f198483030160608501526108f782826107f9565b9150506060840151608084015260018060a01b0360808501511660a084015260a084015160c08401528091505092915050565b600181811c9082168061093e57607f821691505b60208210810361095e57634e487b7160e01b600052602260045260246000fd5b50919050565b601f8211156109ae57806000526020600020601f840160051c8101602085101561098b5750805b601f840160051c820191505b818110156109ab5760008155600101610997565b50505b505050565b815167ffffffffffffffff8111156109cd576109cd6106c2565b6109e1816109db845461092a565b84610964565b6020601f821160018114610a1557600083156109fd5750848201515b600019600385901b1c1916600184901b1784556109ab565b600084815260208120601f198516915b82811015610a455787850151825560209485019460019092019101610a25565b5084821015610a635786840151600019600387901b60f8161c191681555b50505050600190811b01905550565b85815260a060208201526000610a8b60a08301876107f9565b6040830195909552506001600160a01b0392909216606083015260809091015292915050565b634e487b7160e01b600052603260045260246000fdfea2646970667358221220ea81db141026c76446384287999ee9699dfe921609822c8114a29cb188aac3e364736f6c634300081b0033",
  "linkReferences": {},
  "deployedLinkReferences": {}
}