{
  "_format": "hh-sol-artifact-1",
  "contractName": "ProductSystem",
  "sourceName": "contracts/ProductSystem.sol",
  "abi": [
    {
      "anonymous": false,
      "inputs": [
        {
          "indexed": false,
          "internalType": "uint256",
          "name": "productId",
          "type": "uint256"
        },
        {
          "indexed": false,
          "internalType": "string",
          "name": "name",
          "type": "string"
        },
        {
          "indexed": false,
          "internalType": "uint256",
          "name": "price",
          "type": "uint256"
        },
        {
          "indexed": false,
          "internalType": "address",
          "name": "seller",
          "type": "address"
        },
        {
          "indexed": false,
          "internalType": "uint256",
          "name": "quantity",
          "type": "uint256"
        }
      ],
      "name": "ProductAdded",
      "type": "event"
    },
    {
      "anonymous": false,
      "inputs": [
        {
          "indexed": false,
          "internalType": "uint256",
          "name": "productId",
          "type": "uint256"
        }
      ],
      "name": "ProductOutOfStock",
      "type": "event"
    },
    {
      "inputs": [
        {
          "internalType": "string",
          "name": "name",
          "type": "string"
        },
        {
          "internalType": "string",
          "name": "description",
          "type": "string"
        },
        {
          "internalType": "uint256",
          "name": "price",
          "type": "uint256"
        },
        {
          "internalType": "uint256",
          "name": "quantity",
          "type": "uint256"
        }
      ],
      "name": "addProduct",
      "outputs": [],
      "stateMutability": "nonpayable",
      "type": "function"
    },
    {
      "inputs": [
        {
          "internalType": "uint256",
          "name": "productId",
          "type": "uint256"
        }
      ],
      "name": "getProduct",
      "outputs": [
        {
          "components": [
            {
              "internalType": "uint256",
              "name": "id",
              "type": "uint256"
            },
            {
              "internalType": "string",
              "name": "name",
              "type": "string"
            },
            {
              "internalType": "string",
              "name": "description",
              "type": "string"
            },
            {
              "internalType": "uint256",
              "name": "price",
              "type": "uint256"
            },
            {
              "internalType": "address",
              "name": "seller",
              "type": "address"
            },
            {
              "internalType": "uint256",
              "name": "quantity",
              "type": "uint256"
            }
          ],
          "internalType": "struct ProductSystem.Product",
          "name": "",
          "type": "tuple"
        }
      ],
      "stateMutability": "view",
      "type": "function"
    },
    {
      "inputs": [
        {
          "internalType": "uint256",
          "name": "productId",
          "type": "uint256"
        }
      ],
      "name": "getProductPrice",
      "outputs": [
        {
          "internalType": "uint256",
          "name": "",
          "type": "uint256"
        }
      ],
      "stateMutability": "view",
      "type": "function"
    },
    {
      "inputs": [
        {
          "internalType": "uint256",
          "name": "productId",
          "type": "uint256"
        }
      ],
      "name": "getProductQuantity",
      "outputs": [
        {
          "internalType": "uint256",
          "name": "",
          "type": "uint256"
        }
      ],
      "stateMutability": "view",
      "type": "function"
    },
    {
      "inputs": [
        {
          "internalType": "uint256",
          "name": "productId",
          "type": "uint256"
        }
      ],
      "name": "getProductSeller",
      "outputs": [
        {
          "internalType": "address",
          "name": "",
          "type": "address"
        }
      ],
      "stateMutability": "view",
      "type": "function"
    },
    {
      "inputs": [],
      "name": "getProducts",
      "outputs": [
        {
          "components": [
            {
              "internalType": "uint256",
              "name": "id",
              "type": "uint256"
            },
            {
              "internalType": "string",
              "name": "name",
              "type": "string"
            },
            {
              "internalType": "string",
              "name": "description",
              "type": "string"
            },
            {
              "internalType": "uint256",
              "name": "price",
              "type": "uint256"
            },
            {
              "internalType": "address",
              "name": "seller",
              "type": "address"
            },
            {
              "internalType": "uint256",
              "name": "quantity",
              "type": "uint256"
            }
          ],
          "internalType": "struct ProductSystem.Product[]",
          "name": "",
          "type": "tuple[]"
        }
      ],
      "stateMutability": "view",
      "type": "function"
    },
    {
      "inputs": [],
      "name": "getProductsNumber",
      "outputs": [
        {
          "internalType": "uint256",
          "name": "",
          "type": "uint256"
        }
      ],
      "stateMutability": "view",
      "type": "function"
    },
    {
      "inputs": [
        {
          "internalType": "uint256",
          "name": "",
          "type": "uint256"
        }
      ],
      "name": "products",
      "outputs": [
        {
          "internalType": "uint256",
          "name": "id",
          "type": "uint256"
        },
        {
          "internalType": "string",
          "name": "name",
          "type": "string"
        },
        {
          "internalType": "string",
          "name": "description",
          "type": "string"
        },
        {
          "internalType": "uint256",
          "name": "price",
          "type": "uint256"
        },
        {
          "internalType": "address",
          "name": "seller",
          "type": "address"
        },
        {
          "internalType": "uint256",
          "name": "quantity",
          "type": "uint256"
        }
      ],
      "stateMutability": "view",
      "type": "function"
    },
    {
      "inputs": [
        {
          "internalType": "uint256",
          "name": "productId",
          "type": "uint256"
        },
        {
          "internalType": "uint256",
          "name": "quantity",
          "type": "uint256"
        }
      ],
      "name": "setProductQuantity",
      "outputs": [],
      "stateMutability": "nonpayable",
      "type": "function"
    }
  ],
  "bytecode": "0x6080604052348015600f57600080fd5b50610d4b8061001f6000396000f3fe608060405234801561001057600080fd5b50600436106100935760003560e01c806389c0f05b1161006657806389c0f05b14610119578063b9db15b41461012b578063c29b2f201461014b578063db34d12314610160578063e7bf7dfc1461017357600080fd5b806301cecd14146100985780637acc0b20146100ad578063878d9663146100db57806388c8b591146100ee575b600080fd5b6100ab6100a6366004610941565b610186565b005b6100c06100bb3660046109ba565b6102ba565b6040516100d296959493929190610a19565b60405180910390f35b6100ab6100e9366004610a6c565b61041e565b6101016100fc3660046109ba565b610487565b6040516001600160a01b0390911681526020016100d2565b6000545b6040519081526020016100d2565b61013e6101393660046109ba565b6104be565b6040516100d29190610af9565b610153610688565b6040516100d29190610b13565b61011d61016e3660046109ba565b610842565b61011d6101813660046109ba565b61086f565b600080546040805160c081018252828152602081018881529181018790526060810186905233608082015260a081018590526001830184559280528251600683027f290decd9548b62a8d60345a988386fc84ba6bc95484008f6362f93160ef3e5638101918255915192939290917f290decd9548b62a8d60345a988386fc84ba6bc95484008f6362f93160ef3e56401906102219082610c01565b50604082015160028201906102369082610c01565b506060820151600382015560808201516004820180546001600160a01b0319166001600160a01b0390921691909117905560a0909101516005909101556040517f498bc5e351277c028e93e59ee65a3942de0736ba8bfd2685a72e1905757da0be906102ab9083908890879033908890610cc0565b60405180910390a15050505050565b600081815481106102ca57600080fd5b600091825260209091206006909102018054600182018054919350906102ef90610b78565b80601f016020809104026020016040519081016040528092919081815260200182805461031b90610b78565b80156103685780601f1061033d57610100808354040283529160200191610368565b820191906000526020600020905b81548152906001019060200180831161034b57829003601f168201915b50505050509080600201805461037d90610b78565b80601f01602080910402602001604051908101604052809291908181526020018280546103a990610b78565b80156103f65780601f106103cb576101008083540402835291602001916103f6565b820191906000526020600020905b8154815290600101906020018083116103d957829003601f168201915b5050505060038301546004840154600590940154929390926001600160a01b03909116915086565b806000838154811061043257610432610cff565b90600052602060002090600602016005018190555080600003610483576040518281527f43f5f3670f6ff6513a668522b13565d8e096fadeee0830a2d30433bf4b8f23189060200160405180910390a15b5050565b600080828154811061049b5761049b610cff565b60009182526020909120600460069092020101546001600160a01b031692915050565b6105006040518060c001604052806000815260200160608152602001606081526020016000815260200160006001600160a01b03168152602001600081525090565b6000828154811061051357610513610cff565b90600052602060002090600602016040518060c00160405290816000820154815260200160018201805461054690610b78565b80601f016020809104026020016040519081016040528092919081815260200182805461057290610b78565b80156105bf5780601f10610594576101008083540402835291602001916105bf565b820191906000526020600020905b8154815290600101906020018083116105a257829003601f168201915b505050505081526020016002820180546105d890610b78565b80601f016020809104026020016040519081016040528092919081815260200182805461060490610b78565b80156106515780601f1061062657610100808354040283529160200191610651565b820191906000526020600020905b81548152906001019060200180831161063457829003601f168201915b50505091835250506003820154602082015260048201546001600160a01b0316604082015260059091015460609091015292915050565b60606000805480602002602001604051908101604052809291908181526020016000905b8282101561083957838290600052602060002090600602016040518060c0016040529081600082015481526020016001820180546106e990610b78565b80601f016020809104026020016040519081016040528092919081815260200182805461071590610b78565b80156107625780601f1061073757610100808354040283529160200191610762565b820191906000526020600020905b81548152906001019060200180831161074557829003601f168201915b5050505050815260200160028201805461077b90610b78565b80601f01602080910402602001604051908101604052809291908181526020018280546107a790610b78565b80156107f45780601f106107c9576101008083540402835291602001916107f4565b820191906000526020600020905b8154815290600101906020018083116107d757829003601f168201915b5050509183525050600382015460208083019190915260048301546001600160a01b0316604083015260059092015460609091015290825260019290920191016106ac565b50505050905090565b600080828154811061085657610856610cff565b9060005260206000209060060201600501549050919050565b600080828154811061088357610883610cff565b9060005260206000209060060201600301549050919050565b634e487b7160e01b600052604160045260246000fd5b600082601f8301126108c357600080fd5b813567ffffffffffffffff8111156108dd576108dd61089c565b604051601f8201601f19908116603f0116810167ffffffffffffffff8111828210171561090c5761090c61089c565b60405281815283820160200185101561092457600080fd5b816020850160208301376000918101602001919091529392505050565b6000806000806080858703121561095757600080fd5b843567ffffffffffffffff81111561096e57600080fd5b61097a878288016108b2565b945050602085013567ffffffffffffffff81111561099757600080fd5b6109a3878288016108b2565b949794965050505060408301359260600135919050565b6000602082840312156109cc57600080fd5b5035919050565b6000815180845260005b818110156109f9576020818501810151868301820152016109dd565b506000602082860101526020601f19601f83011685010191505092915050565b86815260c060208201526000610a3260c08301886109d3565b8281036040840152610a4481886109d3565b606084019690965250506001600160a01b0392909216608083015260a0909101529392505050565b60008060408385031215610a7f57600080fd5b50508035926020909101359150565b805182526000602082015160c06020850152610aad60c08501826109d3565b905060408301518482036040860152610ac682826109d3565b606085810151908701526080808601516001600160a01b03169087015260a0948501519490950193909352509192915050565b602081526000610b0c6020830184610a8e565b9392505050565b6000602082016020835280845180835260408501915060408160051b86010192506020860160005b82811015610b6c57603f19878603018452610b57858351610a8e565b94506020938401939190910190600101610b3b565b50929695505050505050565b600181811c90821680610b8c57607f821691505b602082108103610bac57634e487b7160e01b600052602260045260246000fd5b50919050565b601f821115610bfc57806000526020600020601f840160051c81016020851015610bd95750805b601f840160051c820191505b81811015610bf95760008155600101610be5565b50505b505050565b815167ffffffffffffffff811115610c1b57610c1b61089c565b610c2f81610c298454610b78565b84610bb2565b6020601f821160018114610c635760008315610c4b5750848201515b600019600385901b1c1916600184901b178455610bf9565b600084815260208120601f198516915b82811015610c935787850151825560209485019460019092019101610c73565b5084821015610cb15786840151600019600387901b60f8161c191681555b50505050600190811b01905550565b85815260a060208201526000610cd960a08301876109d3565b6040830195909552506001600160a01b0392909216606083015260809091015292915050565b634e487b7160e01b600052603260045260246000fdfea26469706673582212209901ee52e85b6ef17d7a00b6a9e071b934a3be60cf47a90bffcaaf8c8db7e45a64736f6c634300081b0033",
  "linkReferences": {},
  "deployedLinkReferences": {}
}