{
  "_format": "hh-sol-artifact-1",
  "contractName": "MathLib",
  "sourceName": "contracts/MathLib.sol",
  "abi": [
    {
      "inputs": [],
      "name": "SCALING_FACTOR",
      "outputs": [
        {
          "internalType": "uint256",
          "name": "",
          "type": "uint256"
        }
      ],
      "stateMutability": "view",
      "type": "function"
    }
  ],
  "bytecode": "0x60876037600b82828239805160001a607314602a57634e487b7160e01b600052600060045260246000fd5b30600052607381538281f3fe730000000000000000000000000000000000000000301460806040526004361060335760003560e01c8063ef4cadc5146038575b600080fd5b603f606481565b60405190815260200160405180910390f3fea264697066735822122004ace73bae2f9ec7f0066375bc9f3c49a8932f8f145eddc672c78a824748f3bf64736f6c634300081b0033",
  "linkReferences": {},
  "deployedLinkReferences": {}
}