{
  "_format": "hh-sol-artifact-1",
  "contractName": "ReputationSystem",
  "sourceName": "contracts/ReputationSystem.sol",
  "abi": [
    {
      "anonymous": false,
      "inputs": [
        {
          "indexed": false,
          "internalType": "uint256",
          "name": "productId",
          "type": "uint256"
        },
        {
          "indexed": false,
          "internalType": "address",
          "name": "reviewer",
          "type": "address"
        },
        {
          "indexed": false,
          "internalType": "uint256",
          "name": "rating",
          "type": "uint256"
        },
        {
          "indexed": false,
          "internalType": "string",
          "name": "comments",
          "type": "string"
        }
      ],
      "name": "FeedbackSubmitted",
      "type": "event"
    },
    {
      "inputs": [
        {
          "internalType": "uint256",
          "name": "productId",
          "type": "uint256"
        },
        {
          "internalType": "uint256",
          "name": "rating",
          "type": "uint256"
        },
        {
          "internalType": "uint256",
          "name": "timestamp",
          "type": "uint256"
        },
        {
          "internalType": "string",
          "name": "comments",
          "type": "string"
        }
      ],
      "name": "addProductFeedback",
      "outputs": [],
      "stateMutability": "nonpayable",
      "type": "function"
    },
    {
      "inputs": [
        {
          "internalType": "uint256",
          "name": "rating",
          "type": "uint256"
        },
        {
          "internalType": "uint256",
          "name": "currentTime",
          "type": "uint256"
        },
        {
          "internalType": "uint256",
          "name": "timestamp",
          "type": "uint256"
        }
      ],
      "name": "calculateContribution",
      "outputs": [
        {
          "internalType": "uint256",
          "name": "",
          "type": "uint256"
        }
      ],
      "stateMutability": "pure",
      "type": "function"
    },
    {
      "inputs": [
        {
          "internalType": "uint256",
          "name": "productId",
          "type": "uint256"
        },
        {
          "internalType": "uint256",
          "name": "feedbackIndex",
          "type": "uint256"
        }
      ],
      "name": "getProductFeedback",
      "outputs": [
        {
          "components": [
            {
              "internalType": "uint256",
              "name": "rating",
              "type": "uint256"
            },
            {
              "internalType": "uint256",
              "name": "timestamp",
              "type": "uint256"
            },
            {
              "internalType": "string",
              "name": "comments",
              "type": "string"
            }
          ],
          "internalType": "struct ReputationSystem.Feedback",
          "name": "",
          "type": "tuple"
        }
      ],
      "stateMutability": "view",
      "type": "function"
    },
    {
      "inputs": [
        {
          "internalType": "uint256",
          "name": "productId",
          "type": "uint256"
        }
      ],
      "name": "getProductFeedbackCount",
      "outputs": [
        {
          "internalType": "uint256",
          "name": "",
          "type": "uint256"
        }
      ],
      "stateMutability": "view",
      "type": "function"
    },
    {
      "inputs": [
        {
          "internalType": "uint256",
          "name": "productId",
          "type": "uint256"
        }
      ],
      "name": "getProductFeedbackScore",
      "outputs": [
        {
          "internalType": "uint256",
          "name": "",
          "type": "uint256"
        }
      ],
      "stateMutability": "view",
      "type": "function"
    },
    {
      "inputs": [
        {
          "internalType": "uint256",
          "name": "productId",
          "type": "uint256"
        }
      ],
      "name": "getProductFeedbacks",
      "outputs": [
        {
          "components": [
            {
              "internalType": "uint256",
              "name": "rating",
              "type": "uint256"
            },
            {
              "internalType": "uint256",
              "name": "timestamp",
              "type": "uint256"
            },
            {
              "internalType": "string",
              "name": "comments",
              "type": "string"
            }
          ],
          "internalType": "struct ReputationSystem.Feedback[]",
          "name": "",
          "type": "tuple[]"
        }
      ],
      "stateMutability": "view",
      "type": "function"
    },
    {
      "inputs": [
        {
          "internalType": "uint256",
          "name": "productId",
          "type": "uint256"
        }
      ],
      "name": "getProductFeedbacksNumber",
      "outputs": [
        {
          "internalType": "uint256",
          "name": "",
          "type": "uint256"
        }
      ],
      "stateMutability": "view",
      "type": "function"
    },
    {
      "inputs": [
        {
          "internalType": "uint256",
          "name": "",
          "type": "uint256"
        },
        {
          "internalType": "uint256",
          "name": "",
          "type": "uint256"
        }
      ],
      "name": "productFeedbacks",
      "outputs": [
        {
          "internalType": "uint256",
          "name": "rating",
          "type": "uint256"
        },
        {
          "internalType": "uint256",
          "name": "timestamp",
          "type": "uint256"
        },
        {
          "internalType": "string",
          "name": "comments",
          "type": "string"
        }
      ],
      "stateMutability": "view",
      "type": "function"
    }
  ],
  "bytecode": "0x6080604052348015600f57600080fd5b50610ba68061001f6000396000f3fe608060405234801561001057600080fd5b50600436106100885760003560e01c80635036b4aa1161005b5780635036b4aa146100e65780639f039c2114610106578063e21752f21461011b578063f29055fa1461013b57600080fd5b80630e8a646d1461008d5780632f2cf5c2146100b35780633b81465c146100b35780634b480a74146100d3575b600080fd5b6100a061009b3660046106c0565b61015d565b6040519081526020015b60405180910390f35b6100a06100c13660046106ec565b60009081526020819052604090205490565b6100a06100e13660046106ec565b6101b2565b6100f96100f43660046106ec565b6102b0565b6040516100aa919061077c565b6101196101143660046107f7565b6103ec565b005b61012e6101293660046108cd565b610492565b6040516100aa91906108ef565b61014e6101493660046108cd565b6105d0565b6040516100aa93929190610902565b60008061016a8385610940565b90506301e133806000818311610189576101848383610940565b61018c565b60005b9050600061019a8289610953565b90506101a6818461069f565b98975050505050505050565b600081815260208190526040812054829082906101ea5760405162461bcd60e51b81526004016101e19061096a565b60405180910390fd5b600042815b60008781526020819052604090205481101561028c57610278600080898152602001908152602001600020828154811061022b5761022b6109b0565b906000526020600020906003020160000154836000808b81526020019081526020016000208481548110610261576102616109b0565b90600052602060002090600302016001015461015d565b61028290846109c6565b92506001016101ef565b506000868152602081905260409020546102a690836109d9565b9695505050505050565b60008181526020819052604081205460609183916102e05760405162461bcd60e51b81526004016101e19061096a565b60008481526020818152604080832080548251818502810185019093528083529193909284015b828210156103df5783829060005260206000209060030201604051806060016040529081600082015481526020016001820154815260200160028201805461034e906109fb565b80601f016020809104026020016040519081016040528092919081815260200182805461037a906109fb565b80156103c75780601f1061039c576101008083540402835291602001916103c7565b820191906000526020600020905b8154815290600101906020018083116103aa57829003601f168201915b50505050508152505081526020019060010190610307565b5050505092505050919050565b6040805160608101825284815260208181018581528284018581526000898152808452948520805460018082018355918752939095208451600390940201928355905193820193909355915190918291600282019061044b9082610a84565b5050507fd77df07942cbe43bb6c279f585a1c4739609e040dedf3665ea5ba07523dcb8fc853386856040516104839493929190610b43565b60405180910390a15050505050565b6104b660405180606001604052806000815260200160008152602001606081525090565b6000838152602081905260409020548390839081106104e75760405162461bcd60e51b81526004016101e19061096a565b6000858152602081905260409020805485908110610507576105076109b0565b90600052602060002090600302016040518060600160405290816000820154815260200160018201548152602001600282018054610544906109fb565b80601f0160208091040260200160405190810160405280929190818152602001828054610570906109fb565b80156105bd5780601f10610592576101008083540402835291602001916105bd565b820191906000526020600020905b8154815290600101906020018083116105a057829003601f168201915b5050505050815250509250505092915050565b600060205281600052604060002081815481106105ec57600080fd5b90600052602060002090600302016000915091505080600001549080600101549080600201805461061c906109fb565b80601f0160208091040260200160405190810160405280929190818152602001828054610648906109fb565b80156106955780601f1061066a57610100808354040283529160200191610695565b820191906000526020600020905b81548152906001019060200180831161067857829003601f168201915b5050505050905083565b6000816106ad606485610953565b6106b791906109d9565b90505b92915050565b6000806000606084860312156106d557600080fd5b505081359360208301359350604090920135919050565b6000602082840312156106fe57600080fd5b5035919050565b6000815180845260005b8181101561072b5760208185018101518683018201520161070f565b506000602082860101526020601f19601f83011685010191505092915050565b805182526020810151602083015260006040820151606060408501526107746060850182610705565b949350505050565b6000602082016020835280845180835260408501915060408160051b86010192506020860160005b828110156107d557603f198786030184526107c085835161074b565b945060209384019391909101906001016107a4565b50929695505050505050565b634e487b7160e01b600052604160045260246000fd5b6000806000806080858703121561080d57600080fd5b843593506020850135925060408501359150606085013567ffffffffffffffff81111561083957600080fd5b8501601f8101871361084a57600080fd5b803567ffffffffffffffff811115610864576108646107e1565b604051601f8201601f19908116603f0116810167ffffffffffffffff81118282101715610893576108936107e1565b6040528181528282016020018910156108ab57600080fd5b8160208401602083013760006020838301015280935050505092959194509250565b600080604083850312156108e057600080fd5b50508035926020909101359150565b6020815260006106b7602083018461074b565b8381528260208201526060604082015260006109216060830184610705565b95945050505050565b634e487b7160e01b600052601160045260246000fd5b818103818111156106ba576106ba61092a565b80820281158282048414176106ba576106ba61092a565b60208082526026908201527f4e6f20666565646261636b7320617661696c61626c6520666f722074686520706040820152651c9bd91d58dd60d21b606082015260800190565b634e487b7160e01b600052603260045260246000fd5b808201808211156106ba576106ba61092a565b6000826109f657634e487b7160e01b600052601260045260246000fd5b500490565b600181811c90821680610a0f57607f821691505b602082108103610a2f57634e487b7160e01b600052602260045260246000fd5b50919050565b601f821115610a7f57806000526020600020601f840160051c81016020851015610a5c5750805b601f840160051c820191505b81811015610a7c5760008155600101610a68565b50505b505050565b815167ffffffffffffffff811115610a9e57610a9e6107e1565b610ab281610aac84546109fb565b84610a35565b6020601f821160018114610ae65760008315610ace5750848201515b600019600385901b1c1916600184901b178455610a7c565b600084815260208120601f198516915b82811015610b165787850151825560209485019460019092019101610af6565b5084821015610b345786840151600019600387901b60f8161c191681555b50505050600190811b01905550565b84815260018060a01b03841660208201528260408201526080606082015260006102a6608083018461070556fea26469706673582212203902b24b08c5ecf72f009f72f1fd835fe9dd66b355cf6e82f3cc7aec0c9e5b4f64736f6c634300081b0033",
  "linkReferences": {},
  "deployedLinkReferences": {}
}