{
  "_format": "hh-sol-artifact-1",
  "contractName": "UserSystem",
  "sourceName": "contracts/UserSystem.sol",
  "abi": [
    {
      "inputs": [
        {
          "internalType": "address",
          "name": "user",
          "type": "address"
        },
        {
          "internalType": "uint256",
          "name": "productId",
          "type": "uint256"
        }
      ],
      "name": "addUserPurchase",
      "outputs": [],
      "stateMutability": "nonpayable",
      "type": "function"
    },
    {
      "inputs": [],
      "name": "getETHPrice",
      "outputs": [
        {
          "internalType": "uint256",
          "name": "",
          "type": "uint256"
        }
      ],
      "stateMutability": "view",
      "type": "function"
    },
    {
      "inputs": [
        {
          "internalType": "address",
          "name": "user",
          "type": "address"
        }
      ],
      "name": "getUserPurchases",
      "outputs": [
        {
          "internalType": "uint256[]",
          "name": "",
          "type": "uint256[]"
        }
      ],
      "stateMutability": "view",
      "type": "function"
    },
    {
      "inputs": [
        {
          "internalType": "address",
          "name": "user",
          "type": "address"
        }
      ],
      "name": "getUserPurchasesNumber",
      "outputs": [
        {
          "internalType": "uint256",
          "name": "",
          "type": "uint256"
        }
      ],
      "stateMutability": "view",
      "type": "function"
    },
    {
      "inputs": [
        {
          "internalType": "address",
          "name": "user",
          "type": "address"
        },
        {
          "internalType": "uint256",
          "name": "amount",
          "type": "uint256"
        }
      ],
      "name": "updateBalance",
      "outputs": [],
      "stateMutability": "payable",
      "type": "function"
    },
    {
      "inputs": [
        {
          "internalType": "address",
          "name": "",
          "type": "address"
        },
        {
          "internalType": "uint256",
          "name": "",
          "type": "uint256"
        }
      ],
      "name": "userPurchases",
      "outputs": [
        {
          "internalType": "uint256",
          "name": "",
          "type": "uint256"
        }
      ],
      "stateMutability": "view",
      "type": "function"
    },
    {
      "inputs": [
        {
          "internalType": "uint256",
          "name": "withdrawAmount",
          "type": "uint256"
        }
      ],
      "name": "withdrawBalance",
      "outputs": [],
      "stateMutability": "nonpayable",
      "type": "function"
    }
  ],
  "bytecode": "0x6080604052600280546001600160a01b03191673694aa1769357215de4fac081bf1f309adc325306179055348015603557600080fd5b506105a5806100456000396000f3fe6080604052600436106100705760003560e01c8063c6e5d8f61161004e578063c6e5d8f61461011b578063cf2c033414610148578063da76d5cd14610168578063e0b1cccb1461018857600080fd5b8063609bb65614610075578063a2def7de146100be578063a607a8d914610106575b600080fd5b34801561008157600080fd5b506100ab610090366004610419565b6001600160a01b031660009081526001602052604090205490565b6040519081526020015b60405180910390f35b3480156100ca57600080fd5b506101046100d936600461043b565b6001600160a01b03909116600090815260016020818152604083208054928301815583529091200155565b005b34801561011257600080fd5b506100ab61019b565b34801561012757600080fd5b5061013b610136366004610419565b610220565b6040516100b59190610465565b34801561015457600080fd5b506100ab61016336600461043b565b61028c565b34801561017457600080fd5b506101046101833660046104a8565b6102bd565b61010461019636600461043b565b610384565b600080600260009054906101000a90046001600160a01b03166001600160a01b031663feaf968c6040518163ffffffff1660e01b815260040160a060405180830381865afa1580156101f1573d6000803e3d6000fd5b505050506040513d601f19601f8201168201806040525081019061021591906104db565b509195945050505050565b6001600160a01b03811660009081526001602090815260409182902080548351818402810184019094528084526060939283018282801561028057602002820191906000526020600020905b81548152602001906001019080831161026c575b50505050509050919050565b600160205281600052604060002081815481106102a857600080fd5b90600052602060002001600091509150505481565b336000908152602081905260409020548181108015906102dd5750600082115b61032e5760405162461bcd60e51b815260206004820152601e60248201527f4e6f7420656e6f7567682062616c616e636520746f207769746864726177000060448201526064015b60405180910390fd5b336000908152602081905260408120805484929061034d908490610543565b9091555050604051339083156108fc029084906000818181858888f1935050505015801561037f573d6000803e3d6000fd5b505050565b803410156103cc5760405162461bcd60e51b8152602060048201526015602482015274125b98dbdc9c9958dd08185b5bdd5b9d081cd95b9d605a1b6044820152606401610325565b6001600160a01b038216600090815260208190526040812080548392906103f490849061055c565b90915550505050565b80356001600160a01b038116811461041457600080fd5b919050565b60006020828403121561042b57600080fd5b610434826103fd565b9392505050565b6000806040838503121561044e57600080fd5b610457836103fd565b946020939093013593505050565b602080825282518282018190526000918401906040840190835b8181101561049d57835183526020938401939092019160010161047f565b509095945050505050565b6000602082840312156104ba57600080fd5b5035919050565b805169ffffffffffffffffffff8116811461041457600080fd5b600080600080600060a086880312156104f357600080fd5b6104fc866104c1565b60208701516040880151606089015192975090955093509150610521608087016104c1565b90509295509295909350565b634e487b7160e01b600052601160045260246000fd5b818103818111156105565761055661052d565b92915050565b808201808211156105565761055661052d56fea2646970667358221220293b20778ea37c286f61fdf4494acbbf286ef53619d9b14aca206e59460462e364736f6c634300081b0033",
  "linkReferences": {},
  "deployedLinkReferences": {}
}